{
	"_format": "hh-sol-artifact-1",
	"contractName": "NFTicket",
	"sourceName": "contracts/NFTicket.sol",
	"abi": [
		{
			"inputs": [],
			"stateMutability": "nonpayable",
			"type": "constructor"
		},
		{
			"anonymous": false,
			"inputs": [
				{
					"indexed": true,
					"internalType": "address",
					"name": "owner",
					"type": "address"
				},
				{
					"indexed": true,
					"internalType": "address",
					"name": "approved",
					"type": "address"
				},
				{
					"indexed": true,
					"internalType": "uint256",
					"name": "tokenId",
					"type": "uint256"
				}
			],
			"name": "Approval",
			"type": "event"
		},
		{
			"anonymous": false,
			"inputs": [
				{
					"indexed": true,
					"internalType": "address",
					"name": "owner",
					"type": "address"
				},
				{
					"indexed": true,
					"internalType": "address",
					"name": "operator",
					"type": "address"
				},
				{
					"indexed": false,
					"internalType": "bool",
					"name": "approved",
					"type": "bool"
				}
			],
			"name": "ApprovalForAll",
			"type": "event"
		},
		{
			"anonymous": false,
			"inputs": [
				{
					"indexed": true,
					"internalType": "address",
					"name": "previousOwner",
					"type": "address"
				},
				{
					"indexed": true,
					"internalType": "address",
					"name": "newOwner",
					"type": "address"
				}
			],
			"name": "OwnershipTransferred",
			"type": "event"
		},
		{
			"anonymous": false,
			"inputs": [
				{
					"indexed": false,
					"internalType": "address",
					"name": "account",
					"type": "address"
				}
			],
			"name": "Paused",
			"type": "event"
		},
		{
			"anonymous": false,
			"inputs": [
				{
					"indexed": true,
					"internalType": "address",
					"name": "from",
					"type": "address"
				},
				{
					"indexed": true,
					"internalType": "address",
					"name": "to",
					"type": "address"
				},
				{
					"indexed": true,
					"internalType": "uint256",
					"name": "tokenId",
					"type": "uint256"
				}
			],
			"name": "Transfer",
			"type": "event"
		},
		{
			"anonymous": false,
			"inputs": [
				{
					"indexed": false,
					"internalType": "address",
					"name": "account",
					"type": "address"
				}
			],
			"name": "Unpaused",
			"type": "event"
		},
		{
			"inputs": [],
			"name": "MAX_TICKETS",
			"outputs": [
				{
					"internalType": "uint256",
					"name": "",
					"type": "uint256"
				}
			],
			"stateMutability": "view",
			"type": "function"
		},
		{
			"inputs": [
				{
					"internalType": "address",
					"name": "to",
					"type": "address"
				},
				{
					"internalType": "uint256",
					"name": "tokenId",
					"type": "uint256"
				}
			],
			"name": "approve",
			"outputs": [],
			"stateMutability": "nonpayable",
			"type": "function"
		},
		{
			"inputs": [
				{
					"internalType": "address",
					"name": "owner",
					"type": "address"
				}
			],
			"name": "balanceOf",
			"outputs": [
				{
					"internalType": "uint256",
					"name": "",
					"type": "uint256"
				}
			],
			"stateMutability": "view",
			"type": "function"
		},
		{
			"inputs": [
				{
					"internalType": "uint256",
					"name": "tokenId",
					"type": "uint256"
				}
			],
			"name": "getApproved",
			"outputs": [
				{
					"internalType": "address",
					"name": "",
					"type": "address"
				}
			],
			"stateMutability": "view",
			"type": "function"
		},
		{
			"inputs": [
				{
					"internalType": "address",
					"name": "owner",
					"type": "address"
				},
				{
					"internalType": "address",
					"name": "operator",
					"type": "address"
				}
			],
			"name": "isApprovedForAll",
			"outputs": [
				{
					"internalType": "bool",
					"name": "",
					"type": "bool"
				}
			],
			"stateMutability": "view",
			"type": "function"
		},
		{
			"inputs": [],
			"name": "name",
			"outputs": [
				{
					"internalType": "string",
					"name": "",
					"type": "string"
				}
			],
			"stateMutability": "view",
			"type": "function"
		},
		{
			"inputs": [],
			"name": "owner",
			"outputs": [
				{
					"internalType": "address",
					"name": "",
					"type": "address"
				}
			],
			"stateMutability": "view",
			"type": "function"
		},
		{
			"inputs": [
				{
					"internalType": "uint256",
					"name": "tokenId",
					"type": "uint256"
				}
			],
			"name": "ownerOf",
			"outputs": [
				{
					"internalType": "address",
					"name": "",
					"type": "address"
				}
			],
			"stateMutability": "view",
			"type": "function"
		},
		{
			"inputs": [],
			"name": "pause",
			"outputs": [],
			"stateMutability": "nonpayable",
			"type": "function"
		},
		{
			"inputs": [],
			"name": "paused",
			"outputs": [
				{
					"internalType": "bool",
					"name": "",
					"type": "bool"
				}
			],
			"stateMutability": "view",
			"type": "function"
		},
		{
			"inputs": [],
			"name": "renounceOwnership",
			"outputs": [],
			"stateMutability": "nonpayable",
			"type": "function"
		},
		{
			"inputs": [
				{
					"internalType": "address",
					"name": "to",
					"type": "address"
				}
			],
			"name": "safeMint",
			"outputs": [],
			"stateMutability": "nonpayable",
			"type": "function"
		},
		{
			"inputs": [
				{
					"internalType": "address",
					"name": "from",
					"type": "address"
				},
				{
					"internalType": "address",
					"name": "to",
					"type": "address"
				},
				{
					"internalType": "uint256",
					"name": "tokenId",
					"type": "uint256"
				}
			],
			"name": "safeTransferFrom",
			"outputs": [],
			"stateMutability": "nonpayable",
			"type": "function"
		},
		{
			"inputs": [
				{
					"internalType": "address",
					"name": "from",
					"type": "address"
				},
				{
					"internalType": "address",
					"name": "to",
					"type": "address"
				},
				{
					"internalType": "uint256",
					"name": "tokenId",
					"type": "uint256"
				},
				{
					"internalType": "bytes",
					"name": "_data",
					"type": "bytes"
				}
			],
			"name": "safeTransferFrom",
			"outputs": [],
			"stateMutability": "nonpayable",
			"type": "function"
		},
		{
			"inputs": [
				{
					"internalType": "address",
					"name": "operator",
					"type": "address"
				},
				{
					"internalType": "bool",
					"name": "approved",
					"type": "bool"
				}
			],
			"name": "setApprovalForAll",
			"outputs": [],
			"stateMutability": "nonpayable",
			"type": "function"
		},
		{
			"inputs": [
				{
					"internalType": "bytes4",
					"name": "interfaceId",
					"type": "bytes4"
				}
			],
			"name": "supportsInterface",
			"outputs": [
				{
					"internalType": "bool",
					"name": "",
					"type": "bool"
				}
			],
			"stateMutability": "view",
			"type": "function"
		},
		{
			"inputs": [],
			"name": "symbol",
			"outputs": [
				{
					"internalType": "string",
					"name": "",
					"type": "string"
				}
			],
			"stateMutability": "view",
			"type": "function"
		},
		{
			"inputs": [
				{
					"internalType": "uint256",
					"name": "index",
					"type": "uint256"
				}
			],
			"name": "tokenByIndex",
			"outputs": [
				{
					"internalType": "uint256",
					"name": "",
					"type": "uint256"
				}
			],
			"stateMutability": "view",
			"type": "function"
		},
		{
			"inputs": [
				{
					"internalType": "address",
					"name": "owner",
					"type": "address"
				},
				{
					"internalType": "uint256",
					"name": "index",
					"type": "uint256"
				}
			],
			"name": "tokenOfOwnerByIndex",
			"outputs": [
				{
					"internalType": "uint256",
					"name": "",
					"type": "uint256"
				}
			],
			"stateMutability": "view",
			"type": "function"
		},
		{
			"inputs": [
				{
					"internalType": "uint256",
					"name": "tokenId",
					"type": "uint256"
				}
			],
			"name": "tokenURI",
			"outputs": [
				{
					"internalType": "string",
					"name": "",
					"type": "string"
				}
			],
			"stateMutability": "view",
			"type": "function"
		},
		{
			"inputs": [],
			"name": "totalSupply",
			"outputs": [
				{
					"internalType": "uint256",
					"name": "",
					"type": "uint256"
				}
			],
			"stateMutability": "view",
			"type": "function"
		},
		{
			"inputs": [
				{
					"internalType": "address",
					"name": "from",
					"type": "address"
				},
				{
					"internalType": "address",
					"name": "to",
					"type": "address"
				},
				{
					"internalType": "uint256",
					"name": "tokenId",
					"type": "uint256"
				}
			],
			"name": "transferFrom",
			"outputs": [],
			"stateMutability": "nonpayable",
			"type": "function"
		},
		{
			"inputs": [
				{
					"internalType": "address",
					"name": "newOwner",
					"type": "address"
				}
			],
			"name": "transferOwnership",
			"outputs": [],
			"stateMutability": "nonpayable",
			"type": "function"
		},
		{
			"inputs": [],
			"name": "unpause",
			"outputs": [],
			"stateMutability": "nonpayable",
			"type": "function"
		}
	],
	"bytecode": "0x60806040523480156200001157600080fd5b506040518060400160405280600881526020017f4e465469636b65740000000000000000000000000000000000000000000000008152506040518060400160405280600381526020017f544b540000000000000000000000000000000000000000000000000000000000815250816000908051906020019062000096929190620001c1565b508060019080519060200190620000af929190620001c1565b5050506000600a60006101000a81548160ff021916908315150217905550620000ed620000e1620000f360201b60201c565b620000fb60201b60201c565b620002d6565b600033905090565b6000600a60019054906101000a900473ffffffffffffffffffffffffffffffffffffffff16905081600a60016101000a81548173ffffffffffffffffffffffffffffffffffffffff021916908373ffffffffffffffffffffffffffffffffffffffff1602179055508173ffffffffffffffffffffffffffffffffffffffff168173ffffffffffffffffffffffffffffffffffffffff167f8be0079c531659141344cd1fd0a4f28419497f9722a3daafe3b4186f6b6457e060405160405180910390a35050565b828054620001cf9062000271565b90600052602060002090601f016020900481019282620001f357600085556200023f565b82601f106200020e57805160ff19168380011785556200023f565b828001600101855582156200023f579182015b828111156200023e57825182559160200191906001019062000221565b5b5090506200024e919062000252565b5090565b5b808211156200026d57600081600090555060010162000253565b5090565b600060028204905060018216806200028a57607f821691505b60208210811415620002a157620002a0620002a7565b5b50919050565b7f4e487b7100000000000000000000000000000000000000000000000000000000600052602260045260246000fd5b6137ff80620002e66000396000f3fe608060405234801561001057600080fd5b50600436106101585760003560e01c80636352211e116100c3578063a22cb4651161007c578063a22cb465146103a1578063b88d4fde146103bd578063c87b56dd146103d9578063e985e9c514610409578063f2fde38b14610439578063fca846dc1461045557610158565b80636352211e146102f157806370a0823114610321578063715018a6146103515780638456cb591461035b5780638da5cb5b1461036557806395d89b411461038357610158565b80632f745c59116101155780632f745c59146102315780633f4ba83a1461026157806340d097c31461026b57806342842e0e146102875780634f6ccce7146102a35780635c975abb146102d357610158565b806301ffc9a71461015d57806306fdde031461018d578063081812fc146101ab578063095ea7b3146101db57806318160ddd146101f757806323b872dd14610215575b600080fd5b61017760048036038101906101729190612707565b610473565b6040516101849190612b99565b60405180910390f35b610195610485565b6040516101a29190612bb4565b60405180910390f35b6101c560048036038101906101c09190612759565b610517565b6040516101d29190612b32565b60405180910390f35b6101f560048036038101906101f091906126cb565b61059c565b005b6101ff6106b4565b60405161020c9190612e56565b60405180910390f35b61022f600480360381019061022a91906125c5565b6106c1565b005b61024b600480360381019061024691906126cb565b610721565b6040516102589190612e56565b60405180910390f35b6102696107c6565b005b61028560048036038101906102809190612560565b61084c565b005b6102a1600480360381019061029c91906125c5565b6108ee565b005b6102bd60048036038101906102b89190612759565b61090e565b6040516102ca9190612e56565b60405180910390f35b6102db6109a5565b6040516102e89190612b99565b60405180910390f35b61030b60048036038101906103069190612759565b6109bc565b6040516103189190612b32565b60405180910390f35b61033b60048036038101906103369190612560565b610a6e565b6040516103489190612e56565b60405180910390f35b610359610b26565b005b610363610bae565b005b61036d610c34565b60405161037a9190612b32565b60405180910390f35b61038b610c5e565b6040516103989190612bb4565b60405180910390f35b6103bb60048036038101906103b6919061268f565b610cf0565b005b6103d760048036038101906103d29190612614565b610d06565b005b6103f360048036038101906103ee9190612759565b610d68565b6040516104009190612bb4565b60405180910390f35b610423600480360381019061041e9190612589565b610e0f565b6040516104309190612b99565b60405180910390f35b610453600480360381019061044e9190612560565b610ea3565b005b61045d610f9b565b60405161046a9190612e56565b60405180910390f35b600061047e82610fa0565b9050919050565b6060600080546104949061307b565b80601f01602080910402602001604051908101604052809291908181526020018280546104c09061307b565b801561050d5780601f106104e25761010080835404028352916020019161050d565b820191906000526020600020905b8154815290600101906020018083116104f057829003601f168201915b5050505050905090565b60006105228261101a565b610561576040517f08c379a000000000000000000000000000000000000000000000000000000000815260040161055890612d96565b60405180910390fd5b6004600083815260200190815260200160002060009054906101000a900473ffffffffffffffffffffffffffffffffffffffff169050919050565b60006105a7826109bc565b90508073ffffffffffffffffffffffffffffffffffffffff168373ffffffffffffffffffffffffffffffffffffffff161415610618576040517f08c379a000000000000000000000000000000000000000000000000000000000815260040161060f90612df6565b60405180910390fd5b8073ffffffffffffffffffffffffffffffffffffffff16610637611086565b73ffffffffffffffffffffffffffffffffffffffff161480610666575061066581610660611086565b610e0f565b5b6106a5576040517f08c379a000000000000000000000000000000000000000000000000000000000815260040161069c90612d16565b60405180910390fd5b6106af838361108e565b505050565b6000600880549050905090565b6106d26106cc611086565b82611147565b610711576040517f08c379a000000000000000000000000000000000000000000000000000000000815260040161070890612e16565b60405180910390fd5b61071c838383611225565b505050565b600061072c83610a6e565b821061076d576040517f08c379a000000000000000000000000000000000000000000000000000000000815260040161076490612bf6565b60405180910390fd5b600660008473ffffffffffffffffffffffffffffffffffffffff1673ffffffffffffffffffffffffffffffffffffffff168152602001908152602001600020600083815260200190815260200160002054905092915050565b6107ce611086565b73ffffffffffffffffffffffffffffffffffffffff166107ec610c34565b73ffffffffffffffffffffffffffffffffffffffff1614610842576040517f08c379a000000000000000000000000000000000000000000000000000000000815260040161083990612db6565b60405180910390fd5b61084a61148c565b565b610854611086565b73ffffffffffffffffffffffffffffffffffffffff16610872610c34565b73ffffffffffffffffffffffffffffffffffffffff16146108c8576040517f08c379a00000000000000000000000000000000000000000000000000000000081526004016108bf90612db6565b60405180910390fd5b60006108d4600b61152e565b90506108e0600b61153c565b6108ea8282611552565b5050565b61090983838360405180602001604052806000815250610d06565b505050565b60006109186106b4565b8210610959576040517f08c379a000000000000000000000000000000000000000000000000000000000815260040161095090612e36565b60405180910390fd5b60088281548110610993577f4e487b7100000000000000000000000000000000000000000000000000000000600052603260045260246000fd5b90600052602060002001549050919050565b6000600a60009054906101000a900460ff16905090565b6000806002600084815260200190815260200160002060009054906101000a900473ffffffffffffffffffffffffffffffffffffffff169050600073ffffffffffffffffffffffffffffffffffffffff168173ffffffffffffffffffffffffffffffffffffffff161415610a65576040517f08c379a0000000000000000000000000000000000000000000000000000000008152600401610a5c90612d56565b60405180910390fd5b80915050919050565b60008073ffffffffffffffffffffffffffffffffffffffff168273ffffffffffffffffffffffffffffffffffffffff161415610adf576040517f08c379a0000000000000000000000000000000000000000000000000000000008152600401610ad690612d36565b60405180910390fd5b600360008373ffffffffffffffffffffffffffffffffffffffff1673ffffffffffffffffffffffffffffffffffffffff168152602001908152602001600020549050919050565b610b2e611086565b73ffffffffffffffffffffffffffffffffffffffff16610b4c610c34565b73ffffffffffffffffffffffffffffffffffffffff1614610ba2576040517f08c379a0000000000000000000000000000000000000000000000000000000008152600401610b9990612db6565b60405180910390fd5b610bac6000611570565b565b610bb6611086565b73ffffffffffffffffffffffffffffffffffffffff16610bd4610c34565b73ffffffffffffffffffffffffffffffffffffffff1614610c2a576040517f08c379a0000000000000000000000000000000000000000000000000000000008152600401610c2190612db6565b60405180910390fd5b610c32611636565b565b6000600a60019054906101000a900473ffffffffffffffffffffffffffffffffffffffff16905090565b606060018054610c6d9061307b565b80601f0160208091040260200160405190810160405280929190818152602001828054610c999061307b565b8015610ce65780601f10610cbb57610100808354040283529160200191610ce6565b820191906000526020600020905b815481529060010190602001808311610cc957829003601f168201915b5050505050905090565b610d02610cfb611086565b83836116d9565b5050565b610d17610d11611086565b83611147565b610d56576040517f08c379a0000000000000000000000000000000000000000000000000000000008152600401610d4d90612e16565b60405180910390fd5b610d6284848484611846565b50505050565b6060610d738261101a565b610db2576040517f08c379a0000000000000000000000000000000000000000000000000000000008152600401610da990612dd6565b60405180910390fd5b6000610dbc6118a2565b90506000815111610ddc5760405180602001604052806000815250610e07565b80610de6846118b9565b604051602001610df7929190612b0e565b6040516020818303038152906040525b915050919050565b6000600560008473ffffffffffffffffffffffffffffffffffffffff1673ffffffffffffffffffffffffffffffffffffffff16815260200190815260200160002060008373ffffffffffffffffffffffffffffffffffffffff1673ffffffffffffffffffffffffffffffffffffffff16815260200190815260200160002060009054906101000a900460ff16905092915050565b610eab611086565b73ffffffffffffffffffffffffffffffffffffffff16610ec9610c34565b73ffffffffffffffffffffffffffffffffffffffff1614610f1f576040517f08c379a0000000000000000000000000000000000000000000000000000000008152600401610f1690612db6565b60405180910390fd5b600073ffffffffffffffffffffffffffffffffffffffff168173ffffffffffffffffffffffffffffffffffffffff161415610f8f576040517f08c379a0000000000000000000000000000000000000000000000000000000008152600401610f8690612c36565b60405180910390fd5b610f9881611570565b50565b606481565b60007f780e9d63000000000000000000000000000000000000000000000000000000007bffffffffffffffffffffffffffffffffffffffffffffffffffffffff1916827bffffffffffffffffffffffffffffffffffffffffffffffffffffffff19161480611013575061101282611a66565b5b9050919050565b60008073ffffffffffffffffffffffffffffffffffffffff166002600084815260200190815260200160002060009054906101000a900473ffffffffffffffffffffffffffffffffffffffff1673ffffffffffffffffffffffffffffffffffffffff1614159050919050565b600033905090565b816004600083815260200190815260200160002060006101000a81548173ffffffffffffffffffffffffffffffffffffffff021916908373ffffffffffffffffffffffffffffffffffffffff160217905550808273ffffffffffffffffffffffffffffffffffffffff16611101836109bc565b73ffffffffffffffffffffffffffffffffffffffff167f8c5be1e5ebec7d5bd14f71427d1e84f3dd0314c0f7b2291e5b200ac8c7c3b92560405160405180910390a45050565b60006111528261101a565b611191576040517f08c379a000000000000000000000000000000000000000000000000000000000815260040161118890612cd6565b60405180910390fd5b600061119c836109bc565b90508073ffffffffffffffffffffffffffffffffffffffff168473ffffffffffffffffffffffffffffffffffffffff1614806111de57506111dd8185610e0f565b5b8061121c57508373ffffffffffffffffffffffffffffffffffffffff1661120484610517565b73ffffffffffffffffffffffffffffffffffffffff16145b91505092915050565b8273ffffffffffffffffffffffffffffffffffffffff16611245826109bc565b73ffffffffffffffffffffffffffffffffffffffff161461129b576040517f08c379a000000000000000000000000000000000000000000000000000000000815260040161129290612c56565b60405180910390fd5b600073ffffffffffffffffffffffffffffffffffffffff168273ffffffffffffffffffffffffffffffffffffffff16141561130b576040517f08c379a000000000000000000000000000000000000000000000000000000000815260040161130290612c96565b60405180910390fd5b611316838383611b48565b61132160008261108e565b6001600360008573ffffffffffffffffffffffffffffffffffffffff1673ffffffffffffffffffffffffffffffffffffffff16815260200190815260200160002060008282546113719190612f91565b925050819055506001600360008473ffffffffffffffffffffffffffffffffffffffff1673ffffffffffffffffffffffffffffffffffffffff16815260200190815260200160002060008282546113c89190612f0a565b92505081905550816002600083815260200190815260200160002060006101000a81548173ffffffffffffffffffffffffffffffffffffffff021916908373ffffffffffffffffffffffffffffffffffffffff160217905550808273ffffffffffffffffffffffffffffffffffffffff168473ffffffffffffffffffffffffffffffffffffffff167fddf252ad1be2c89b69c2b068fc378daa952ba7f163c4a11628f55a4df523b3ef60405160405180910390a4611487838383611ba0565b505050565b6114946109a5565b6114d3576040517f08c379a00000000000000000000000000000000000000000000000000000000081526004016114ca90612bd6565b60405180910390fd5b6000600a60006101000a81548160ff0219169083151502179055507f5db9ee0a495bf2e6ff9c91a7834c1ba4fdd244a5e8aa4e537bd38aeae4b073aa611517611086565b6040516115249190612b32565b60405180910390a1565b600081600001549050919050565b6001816000016000828254019250508190555050565b61156c828260405180602001604052806000815250611ba5565b5050565b6000600a60019054906101000a900473ffffffffffffffffffffffffffffffffffffffff16905081600a60016101000a81548173ffffffffffffffffffffffffffffffffffffffff021916908373ffffffffffffffffffffffffffffffffffffffff1602179055508173ffffffffffffffffffffffffffffffffffffffff168173ffffffffffffffffffffffffffffffffffffffff167f8be0079c531659141344cd1fd0a4f28419497f9722a3daafe3b4186f6b6457e060405160405180910390a35050565b61163e6109a5565b1561167e576040517f08c379a000000000000000000000000000000000000000000000000000000000815260040161167590612cf6565b60405180910390fd5b6001600a60006101000a81548160ff0219169083151502179055507f62e78cea01bee320cd4e420270b5ea74000d11b0c9f74754ebdbfc544b05a2586116c2611086565b6040516116cf9190612b32565b60405180910390a1565b8173ffffffffffffffffffffffffffffffffffffffff168373ffffffffffffffffffffffffffffffffffffffff161415611748576040517f08c379a000000000000000000000000000000000000000000000000000000000815260040161173f90612cb6565b60405180910390fd5b80600560008573ffffffffffffffffffffffffffffffffffffffff1673ffffffffffffffffffffffffffffffffffffffff16815260200190815260200160002060008473ffffffffffffffffffffffffffffffffffffffff1673ffffffffffffffffffffffffffffffffffffffff16815260200190815260200160002060006101000a81548160ff0219169083151502179055508173ffffffffffffffffffffffffffffffffffffffff168373ffffffffffffffffffffffffffffffffffffffff167f17307eab39ab6107e8899845ad3d59bd9653f200f220920489ca2b5937696c31836040516118399190612b99565b60405180910390a3505050565b611851848484611225565b61185d84848484611c00565b61189c576040517f08c379a000000000000000000000000000000000000000000000000000000000815260040161189390612c16565b60405180910390fd5b50505050565b606060405180602001604052806000815250905090565b60606000821415611901576040518060400160405280600181526020017f30000000000000000000000000000000000000000000000000000000000000008152509050611a61565b600082905060005b6000821461193357808061191c906130de565b915050600a8261192c9190612f60565b9150611909565b60008167ffffffffffffffff811115611975577f4e487b7100000000000000000000000000000000000000000000000000000000600052604160045260246000fd5b6040519080825280601f01601f1916602001820160405280156119a75781602001600182028036833780820191505090505b5090505b60008514611a5a576001826119c09190612f91565b9150600a856119cf9190613127565b60306119db9190612f0a565b60f81b818381518110611a17577f4e487b7100000000000000000000000000000000000000000000000000000000600052603260045260246000fd5b60200101907effffffffffffffffffffffffffffffffffffffffffffffffffffffffffffff1916908160001a905350600a85611a539190612f60565b94506119ab565b8093505050505b919050565b60007f80ac58cd000000000000000000000000000000000000000000000000000000007bffffffffffffffffffffffffffffffffffffffffffffffffffffffff1916827bffffffffffffffffffffffffffffffffffffffffffffffffffffffff19161480611b3157507f5b5e139f000000000000000000000000000000000000000000000000000000007bffffffffffffffffffffffffffffffffffffffffffffffffffffffff1916827bffffffffffffffffffffffffffffffffffffffffffffffffffffffff1916145b80611b415750611b4082611d97565b5b9050919050565b611b506109a5565b15611b90576040517f08c379a0000000000000000000000000000000000000000000000000000000008152600401611b8790612cf6565b60405180910390fd5b611b9b838383611e01565b505050565b505050565b611baf8383611f15565b611bbc6000848484611c00565b611bfb576040517f08c379a0000000000000000000000000000000000000000000000000000000008152600401611bf290612c16565b60405180910390fd5b505050565b6000611c218473ffffffffffffffffffffffffffffffffffffffff166120ef565b15611d8a578373ffffffffffffffffffffffffffffffffffffffff1663150b7a02611c4a611086565b8786866040518563ffffffff1660e01b8152600401611c6c9493929190612b4d565b602060405180830381600087803b158015611c8657600080fd5b505af1925050508015611cb757506040513d601f19601f82011682018060405250810190611cb49190612730565b60015b611d3a573d8060008114611ce7576040519150601f19603f3d011682016040523d82523d6000602084013e611cec565b606091505b50600081511415611d32576040517f08c379a0000000000000000000000000000000000000000000000000000000008152600401611d2990612c16565b60405180910390fd5b805181602001fd5b63150b7a0260e01b7bffffffffffffffffffffffffffffffffffffffffffffffffffffffff1916817bffffffffffffffffffffffffffffffffffffffffffffffffffffffff191614915050611d8f565b600190505b949350505050565b60007f01ffc9a7000000000000000000000000000000000000000000000000000000007bffffffffffffffffffffffffffffffffffffffffffffffffffffffff1916827bffffffffffffffffffffffffffffffffffffffffffffffffffffffff1916149050919050565b611e0c838383612112565b600073ffffffffffffffffffffffffffffffffffffffff168373ffffffffffffffffffffffffffffffffffffffff161415611e4f57611e4a81612117565b611e8e565b8173ffffffffffffffffffffffffffffffffffffffff168373ffffffffffffffffffffffffffffffffffffffff1614611e8d57611e8c8382612160565b5b5b600073ffffffffffffffffffffffffffffffffffffffff168273ffffffffffffffffffffffffffffffffffffffff161415611ed157611ecc816122cd565b611f10565b8273ffffffffffffffffffffffffffffffffffffffff168273ffffffffffffffffffffffffffffffffffffffff1614611f0f57611f0e8282612410565b5b5b505050565b600073ffffffffffffffffffffffffffffffffffffffff168273ffffffffffffffffffffffffffffffffffffffff161415611f85576040517f08c379a0000000000000000000000000000000000000000000000000000000008152600401611f7c90612d76565b60405180910390fd5b611f8e8161101a565b15611fce576040517f08c379a0000000000000000000000000000000000000000000000000000000008152600401611fc590612c76565b60405180910390fd5b611fda60008383611b48565b6001600360008473ffffffffffffffffffffffffffffffffffffffff1673ffffffffffffffffffffffffffffffffffffffff168152602001908152602001600020600082825461202a9190612f0a565b92505081905550816002600083815260200190815260200160002060006101000a81548173ffffffffffffffffffffffffffffffffffffffff021916908373ffffffffffffffffffffffffffffffffffffffff160217905550808273ffffffffffffffffffffffffffffffffffffffff16600073ffffffffffffffffffffffffffffffffffffffff167fddf252ad1be2c89b69c2b068fc378daa952ba7f163c4a11628f55a4df523b3ef60405160405180910390a46120eb60008383611ba0565b5050565b6000808273ffffffffffffffffffffffffffffffffffffffff163b119050919050565b505050565b6008805490506009600083815260200190815260200160002081905550600881908060018154018082558091505060019003906000526020600020016000909190919091505550565b6000600161216d84610a6e565b6121779190612f91565b905060006007600084815260200190815260200160002054905081811461225c576000600660008673ffffffffffffffffffffffffffffffffffffffff1673ffffffffffffffffffffffffffffffffffffffff168152602001908152602001600020600084815260200190815260200160002054905080600660008773ffffffffffffffffffffffffffffffffffffffff1673ffffffffffffffffffffffffffffffffffffffff168152602001908152602001600020600084815260200190815260200160002081905550816007600083815260200190815260200160002081905550505b6007600084815260200190815260200160002060009055600660008573ffffffffffffffffffffffffffffffffffffffff1673ffffffffffffffffffffffffffffffffffffffff16815260200190815260200160002060008381526020019081526020016000206000905550505050565b600060016008805490506122e19190612f91565b9050600060096000848152602001908152602001600020549050600060088381548110612337577f4e487b7100000000000000000000000000000000000000000000000000000000600052603260045260246000fd5b90600052602060002001549050806008838154811061237f577f4e487b7100000000000000000000000000000000000000000000000000000000600052603260045260246000fd5b9060005260206000200181905550816009600083815260200190815260200160002081905550600960008581526020019081526020016000206000905560088054806123f4577f4e487b7100000000000000000000000000000000000000000000000000000000600052603160045260246000fd5b6001900381819060005260206000200160009055905550505050565b600061241b83610a6e565b905081600660008573ffffffffffffffffffffffffffffffffffffffff1673ffffffffffffffffffffffffffffffffffffffff168152602001908152602001600020600083815260200190815260200160002081905550806007600084815260200190815260200160002081905550505050565b60006124a261249d84612e96565b612e71565b9050828152602081018484840111156124ba57600080fd5b6124c5848285613039565b509392505050565b6000813590506124dc8161376d565b92915050565b6000813590506124f181613784565b92915050565b6000813590506125068161379b565b92915050565b60008151905061251b8161379b565b92915050565b600082601f83011261253257600080fd5b813561254284826020860161248f565b91505092915050565b60008135905061255a816137b2565b92915050565b60006020828403121561257257600080fd5b6000612580848285016124cd565b91505092915050565b6000806040838503121561259c57600080fd5b60006125aa858286016124cd565b92505060206125bb858286016124cd565b9150509250929050565b6000806000606084860312156125da57600080fd5b60006125e8868287016124cd565b93505060206125f9868287016124cd565b925050604061260a8682870161254b565b9150509250925092565b6000806000806080858703121561262a57600080fd5b6000612638878288016124cd565b9450506020612649878288016124cd565b935050604061265a8782880161254b565b925050606085013567ffffffffffffffff81111561267757600080fd5b61268387828801612521565b91505092959194509250565b600080604083850312156126a257600080fd5b60006126b0858286016124cd565b92505060206126c1858286016124e2565b9150509250929050565b600080604083850312156126de57600080fd5b60006126ec858286016124cd565b92505060206126fd8582860161254b565b9150509250929050565b60006020828403121561271957600080fd5b6000612727848285016124f7565b91505092915050565b60006020828403121561274257600080fd5b60006127508482850161250c565b91505092915050565b60006020828403121561276b57600080fd5b60006127798482850161254b565b91505092915050565b61278b81612fc5565b82525050565b61279a81612fd7565b82525050565b60006127ab82612ec7565b6127b58185612edd565b93506127c5818560208601613048565b6127ce81613214565b840191505092915050565b60006127e482612ed2565b6127ee8185612eee565b93506127fe818560208601613048565b61280781613214565b840191505092915050565b600061281d82612ed2565b6128278185612eff565b9350612837818560208601613048565b80840191505092915050565b6000612850601483612eee565b915061285b82613225565b602082019050919050565b6000612873602b83612eee565b915061287e8261324e565b604082019050919050565b6000612896603283612eee565b91506128a18261329d565b604082019050919050565b60006128b9602683612eee565b91506128c4826132ec565b604082019050919050565b60006128dc602583612eee565b91506128e78261333b565b604082019050919050565b60006128ff601c83612eee565b915061290a8261338a565b602082019050919050565b6000612922602483612eee565b915061292d826133b3565b604082019050919050565b6000612945601983612eee565b915061295082613402565b602082019050919050565b6000612968602c83612eee565b91506129738261342b565b604082019050919050565b600061298b601083612eee565b91506129968261347a565b602082019050919050565b60006129ae603883612eee565b91506129b9826134a3565b604082019050919050565b60006129d1602a83612eee565b91506129dc826134f2565b604082019050919050565b60006129f4602983612eee565b91506129ff82613541565b604082019050919050565b6000612a17602083612eee565b9150612a2282613590565b602082019050919050565b6000612a3a602c83612eee565b9150612a45826135b9565b604082019050919050565b6000612a5d602083612eee565b9150612a6882613608565b602082019050919050565b6000612a80602f83612eee565b9150612a8b82613631565b604082019050919050565b6000612aa3602183612eee565b9150612aae82613680565b604082019050919050565b6000612ac6603183612eee565b9150612ad1826136cf565b604082019050919050565b6000612ae9602c83612eee565b9150612af48261371e565b604082019050919050565b612b088161302f565b82525050565b6000612b1a8285612812565b9150612b268284612812565b91508190509392505050565b6000602082019050612b476000830184612782565b92915050565b6000608082019050612b626000830187612782565b612b6f6020830186612782565b612b7c6040830185612aff565b8181036060830152612b8e81846127a0565b905095945050505050565b6000602082019050612bae6000830184612791565b92915050565b60006020820190508181036000830152612bce81846127d9565b905092915050565b60006020820190508181036000830152612bef81612843565b9050919050565b60006020820190508181036000830152612c0f81612866565b9050919050565b60006020820190508181036000830152612c2f81612889565b9050919050565b60006020820190508181036000830152612c4f816128ac565b9050919050565b60006020820190508181036000830152612c6f816128cf565b9050919050565b60006020820190508181036000830152612c8f816128f2565b9050919050565b60006020820190508181036000830152612caf81612915565b9050919050565b60006020820190508181036000830152612ccf81612938565b9050919050565b60006020820190508181036000830152612cef8161295b565b9050919050565b60006020820190508181036000830152612d0f8161297e565b9050919050565b60006020820190508181036000830152612d2f816129a1565b9050919050565b60006020820190508181036000830152612d4f816129c4565b9050919050565b60006020820190508181036000830152612d6f816129e7565b9050919050565b60006020820190508181036000830152612d8f81612a0a565b9050919050565b60006020820190508181036000830152612daf81612a2d565b9050919050565b60006020820190508181036000830152612dcf81612a50565b9050919050565b60006020820190508181036000830152612def81612a73565b9050919050565b60006020820190508181036000830152612e0f81612a96565b9050919050565b60006020820190508181036000830152612e2f81612ab9565b9050919050565b60006020820190508181036000830152612e4f81612adc565b9050919050565b6000602082019050612e6b6000830184612aff565b92915050565b6000612e7b612e8c565b9050612e8782826130ad565b919050565b6000604051905090565b600067ffffffffffffffff821115612eb157612eb06131e5565b5b612eba82613214565b9050602081019050919050565b600081519050919050565b600081519050919050565b600082825260208201905092915050565b600082825260208201905092915050565b600081905092915050565b6000612f158261302f565b9150612f208361302f565b9250827fffffffffffffffffffffffffffffffffffffffffffffffffffffffffffffffff03821115612f5557612f54613158565b5b828201905092915050565b6000612f6b8261302f565b9150612f768361302f565b925082612f8657612f85613187565b5b828204905092915050565b6000612f9c8261302f565b9150612fa78361302f565b925082821015612fba57612fb9613158565b5b828203905092915050565b6000612fd08261300f565b9050919050565b60008115159050919050565b60007fffffffff0000000000000000000000000000000000000000000000000000000082169050919050565b600073ffffffffffffffffffffffffffffffffffffffff82169050919050565b6000819050919050565b82818337600083830152505050565b60005b8381101561306657808201518184015260208101905061304b565b83811115613075576000848401525b50505050565b6000600282049050600182168061309357607f821691505b602082108114156130a7576130a66131b6565b5b50919050565b6130b682613214565b810181811067ffffffffffffffff821117156130d5576130d46131e5565b5b80604052505050565b60006130e98261302f565b91507fffffffffffffffffffffffffffffffffffffffffffffffffffffffffffffffff82141561311c5761311b613158565b5b600182019050919050565b60006131328261302f565b915061313d8361302f565b92508261314d5761314c613187565b5b828206905092915050565b7f4e487b7100000000000000000000000000000000000000000000000000000000600052601160045260246000fd5b7f4e487b7100000000000000000000000000000000000000000000000000000000600052601260045260246000fd5b7f4e487b7100000000000000000000000000000000000000000000000000000000600052602260045260246000fd5b7f4e487b7100000000000000000000000000000000000000000000000000000000600052604160045260246000fd5b6000601f19601f8301169050919050565b7f5061757361626c653a206e6f7420706175736564000000000000000000000000600082015250565b7f455243373231456e756d657261626c653a206f776e657220696e646578206f7560008201527f74206f6620626f756e6473000000000000000000000000000000000000000000602082015250565b7f4552433732313a207472616e7366657220746f206e6f6e20455243373231526560008201527f63656976657220696d706c656d656e7465720000000000000000000000000000602082015250565b7f4f776e61626c653a206e6577206f776e657220697320746865207a65726f206160008201527f6464726573730000000000000000000000000000000000000000000000000000602082015250565b7f4552433732313a207472616e736665722066726f6d20696e636f72726563742060008201527f6f776e6572000000000000000000000000000000000000000000000000000000602082015250565b7f4552433732313a20746f6b656e20616c7265616479206d696e74656400000000600082015250565b7f4552433732313a207472616e7366657220746f20746865207a65726f2061646460008201527f7265737300000000000000000000000000000000000000000000000000000000602082015250565b7f4552433732313a20617070726f766520746f2063616c6c657200000000000000600082015250565b7f4552433732313a206f70657261746f7220717565727920666f72206e6f6e657860008201527f697374656e7420746f6b656e0000000000000000000000000000000000000000602082015250565b7f5061757361626c653a2070617573656400000000000000000000000000000000600082015250565b7f4552433732313a20617070726f76652063616c6c6572206973206e6f74206f7760008201527f6e6572206e6f7220617070726f76656420666f7220616c6c0000000000000000602082015250565b7f4552433732313a2062616c616e636520717565727920666f7220746865207a6560008201527f726f206164647265737300000000000000000000000000000000000000000000602082015250565b7f4552433732313a206f776e657220717565727920666f72206e6f6e657869737460008201527f656e7420746f6b656e0000000000000000000000000000000000000000000000602082015250565b7f4552433732313a206d696e7420746f20746865207a65726f2061646472657373600082015250565b7f4552433732313a20617070726f76656420717565727920666f72206e6f6e657860008201527f697374656e7420746f6b656e0000000000000000000000000000000000000000602082015250565b7f4f776e61626c653a2063616c6c6572206973206e6f7420746865206f776e6572600082015250565b7f4552433732314d657461646174613a2055524920717565727920666f72206e6f60008201527f6e6578697374656e7420746f6b656e0000000000000000000000000000000000602082015250565b7f4552433732313a20617070726f76616c20746f2063757272656e74206f776e6560008201527f7200000000000000000000000000000000000000000000000000000000000000602082015250565b7f4552433732313a207472616e736665722063616c6c6572206973206e6f74206f60008201527f776e6572206e6f7220617070726f766564000000000000000000000000000000602082015250565b7f455243373231456e756d657261626c653a20676c6f62616c20696e646578206f60008201527f7574206f6620626f756e64730000000000000000000000000000000000000000602082015250565b61377681612fc5565b811461378157600080fd5b50565b61378d81612fd7565b811461379857600080fd5b50565b6137a481612fe3565b81146137af57600080fd5b50565b6137bb8161302f565b81146137c657600080fd5b5056fea26469706673582212209241dfeaea315449ef4cfea7d4a2661169886f2a0827cff0f94542bf70ce904d64736f6c63430008040033",
	"linkReferences": {},
	"deployedLinkReferences": {}
}