{
  "_format": "hh-sol-artifact-1",
  "contractName": "NFTicket",
  "sourceName": "contracts/NFTicket.sol",
  "abi": [
    {
      "inputs": [],
      "stateMutability": "nonpayable",
      "type": "constructor"
    },
    {
      "anonymous": false,
      "inputs": [
        {
          "indexed": true,
          "internalType": "address",
          "name": "owner",
          "type": "address"
        },
        {
          "indexed": true,
          "internalType": "address",
          "name": "approved",
          "type": "address"
        },
        {
          "indexed": true,
          "internalType": "uint256",
          "name": "tokenId",
          "type": "uint256"
        }
      ],
      "name": "Approval",
      "type": "event"
    },
    {
      "anonymous": false,
      "inputs": [
        {
          "indexed": true,
          "internalType": "address",
          "name": "owner",
          "type": "address"
        },
        {
          "indexed": true,
          "internalType": "address",
          "name": "operator",
          "type": "address"
        },
        {
          "indexed": false,
          "internalType": "bool",
          "name": "approved",
          "type": "bool"
        }
      ],
      "name": "ApprovalForAll",
      "type": "event"
    },
    {
      "anonymous": false,
      "inputs": [
        {
          "indexed": true,
          "internalType": "address",
          "name": "previousOwner",
          "type": "address"
        },
        {
          "indexed": true,
          "internalType": "address",
          "name": "newOwner",
          "type": "address"
        }
      ],
      "name": "OwnershipTransferred",
      "type": "event"
    },
    {
      "anonymous": false,
      "inputs": [
        {
          "indexed": false,
          "internalType": "address",
          "name": "account",
          "type": "address"
        }
      ],
      "name": "Paused",
      "type": "event"
    },
    {
      "anonymous": false,
      "inputs": [
        {
          "indexed": true,
          "internalType": "address",
          "name": "from",
          "type": "address"
        },
        {
          "indexed": true,
          "internalType": "address",
          "name": "to",
          "type": "address"
        },
        {
          "indexed": true,
          "internalType": "uint256",
          "name": "tokenId",
          "type": "uint256"
        }
      ],
      "name": "Transfer",
      "type": "event"
    },
    {
      "anonymous": false,
      "inputs": [
        {
          "indexed": false,
          "internalType": "address",
          "name": "account",
          "type": "address"
        }
      ],
      "name": "Unpaused",
      "type": "event"
    },
    {
      "inputs": [],
      "name": "MAX_MINT_PER_TX",
      "outputs": [
        {
          "internalType": "uint256",
          "name": "",
          "type": "uint256"
        }
      ],
      "stateMutability": "view",
      "type": "function"
    },
    {
      "inputs": [],
      "name": "MAX_PRESALE_SUPPLY",
      "outputs": [
        {
          "internalType": "uint256",
          "name": "",
          "type": "uint256"
        }
      ],
      "stateMutability": "view",
      "type": "function"
    },
    {
      "inputs": [],
      "name": "MAX_SUPPLY",
      "outputs": [
        {
          "internalType": "uint256",
          "name": "",
          "type": "uint256"
        }
      ],
      "stateMutability": "view",
      "type": "function"
    },
    {
      "inputs": [
        {
          "internalType": "address",
          "name": "to",
          "type": "address"
        },
        {
          "internalType": "uint256",
          "name": "tokenId",
          "type": "uint256"
        }
      ],
      "name": "approve",
      "outputs": [],
      "stateMutability": "nonpayable",
      "type": "function"
    },
    {
      "inputs": [
        {
          "internalType": "address",
          "name": "owner",
          "type": "address"
        }
      ],
      "name": "balanceOf",
      "outputs": [
        {
          "internalType": "uint256",
          "name": "",
          "type": "uint256"
        }
      ],
      "stateMutability": "view",
      "type": "function"
    },
    {
      "inputs": [
        {
          "internalType": "uint256",
          "name": "tokenId",
          "type": "uint256"
        }
      ],
      "name": "getApproved",
      "outputs": [
        {
          "internalType": "address",
          "name": "",
          "type": "address"
        }
      ],
      "stateMutability": "view",
      "type": "function"
    },
    {
      "inputs": [
        {
          "internalType": "address",
          "name": "owner",
          "type": "address"
        },
        {
          "internalType": "address",
          "name": "operator",
          "type": "address"
        }
      ],
      "name": "isApprovedForAll",
      "outputs": [
        {
          "internalType": "bool",
          "name": "",
          "type": "bool"
        }
      ],
      "stateMutability": "view",
      "type": "function"
    },
    {
      "inputs": [
        {
          "internalType": "uint256",
          "name": "_amount",
          "type": "uint256"
        }
      ],
      "name": "mintPresale",
      "outputs": [],
      "stateMutability": "payable",
      "type": "function"
    },
    {
      "inputs": [
        {
          "internalType": "uint256",
          "name": "_amount",
          "type": "uint256"
        }
      ],
      "name": "mintToken",
      "outputs": [],
      "stateMutability": "payable",
      "type": "function"
    },
    {
      "inputs": [],
      "name": "name",
      "outputs": [
        {
          "internalType": "string",
          "name": "",
          "type": "string"
        }
      ],
      "stateMutability": "view",
      "type": "function"
    },
    {
      "inputs": [],
      "name": "owner",
      "outputs": [
        {
          "internalType": "address",
          "name": "",
          "type": "address"
        }
      ],
      "stateMutability": "view",
      "type": "function"
    },
    {
      "inputs": [
        {
          "internalType": "uint256",
          "name": "tokenId",
          "type": "uint256"
        }
      ],
      "name": "ownerOf",
      "outputs": [
        {
          "internalType": "address",
          "name": "",
          "type": "address"
        }
      ],
      "stateMutability": "view",
      "type": "function"
    },
    {
      "inputs": [],
      "name": "pause",
      "outputs": [],
      "stateMutability": "nonpayable",
      "type": "function"
    },
    {
      "inputs": [],
      "name": "paused",
      "outputs": [
        {
          "internalType": "bool",
          "name": "",
          "type": "bool"
        }
      ],
      "stateMutability": "view",
      "type": "function"
    },
    {
      "inputs": [],
      "name": "presaleActive",
      "outputs": [
        {
          "internalType": "bool",
          "name": "",
          "type": "bool"
        }
      ],
      "stateMutability": "view",
      "type": "function"
    },
    {
      "inputs": [],
      "name": "presale_price",
      "outputs": [
        {
          "internalType": "uint256",
          "name": "",
          "type": "uint256"
        }
      ],
      "stateMutability": "view",
      "type": "function"
    },
    {
      "inputs": [],
      "name": "price",
      "outputs": [
        {
          "internalType": "uint256",
          "name": "",
          "type": "uint256"
        }
      ],
      "stateMutability": "view",
      "type": "function"
    },
    {
      "inputs": [],
      "name": "renounceOwnership",
      "outputs": [],
      "stateMutability": "nonpayable",
      "type": "function"
    },
    {
      "inputs": [
        {
          "internalType": "address",
          "name": "from",
          "type": "address"
        },
        {
          "internalType": "address",
          "name": "to",
          "type": "address"
        },
        {
          "internalType": "uint256",
          "name": "tokenId",
          "type": "uint256"
        }
      ],
      "name": "safeTransferFrom",
      "outputs": [],
      "stateMutability": "nonpayable",
      "type": "function"
    },
    {
      "inputs": [
        {
          "internalType": "address",
          "name": "from",
          "type": "address"
        },
        {
          "internalType": "address",
          "name": "to",
          "type": "address"
        },
        {
          "internalType": "uint256",
          "name": "tokenId",
          "type": "uint256"
        },
        {
          "internalType": "bytes",
          "name": "_data",
          "type": "bytes"
        }
      ],
      "name": "safeTransferFrom",
      "outputs": [],
      "stateMutability": "nonpayable",
      "type": "function"
    },
    {
      "inputs": [],
      "name": "saleActive",
      "outputs": [
        {
          "internalType": "bool",
          "name": "",
          "type": "bool"
        }
      ],
      "stateMutability": "view",
      "type": "function"
    },
    {
      "inputs": [],
      "name": "salePrice",
      "outputs": [
        {
          "internalType": "uint256",
          "name": "",
          "type": "uint256"
        }
      ],
      "stateMutability": "view",
      "type": "function"
    },
    {
      "inputs": [
        {
          "internalType": "address",
          "name": "operator",
          "type": "address"
        },
        {
          "internalType": "bool",
          "name": "approved",
          "type": "bool"
        }
      ],
      "name": "setApprovalForAll",
      "outputs": [],
      "stateMutability": "nonpayable",
      "type": "function"
    },
    {
      "inputs": [
        {
          "internalType": "uint256",
          "name": "newPrice",
          "type": "uint256"
        }
      ],
      "name": "setPrice",
      "outputs": [],
      "stateMutability": "nonpayable",
      "type": "function"
    },
    {
      "inputs": [
        {
          "internalType": "bool",
          "name": "val",
          "type": "bool"
        }
      ],
      "name": "setSaleActive",
      "outputs": [],
      "stateMutability": "nonpayable",
      "type": "function"
    },
    {
      "inputs": [
        {
          "internalType": "bytes4",
          "name": "interfaceId",
          "type": "bytes4"
        }
      ],
      "name": "supportsInterface",
      "outputs": [
        {
          "internalType": "bool",
          "name": "",
          "type": "bool"
        }
      ],
      "stateMutability": "view",
      "type": "function"
    },
    {
      "inputs": [],
      "name": "symbol",
      "outputs": [
        {
          "internalType": "string",
          "name": "",
          "type": "string"
        }
      ],
      "stateMutability": "view",
      "type": "function"
    },
    {
      "inputs": [
        {
          "internalType": "uint256",
          "name": "index",
          "type": "uint256"
        }
      ],
      "name": "tokenByIndex",
      "outputs": [
        {
          "internalType": "uint256",
          "name": "",
          "type": "uint256"
        }
      ],
      "stateMutability": "view",
      "type": "function"
    },
    {
      "inputs": [
        {
          "internalType": "address",
          "name": "owner",
          "type": "address"
        },
        {
          "internalType": "uint256",
          "name": "index",
          "type": "uint256"
        }
      ],
      "name": "tokenOfOwnerByIndex",
      "outputs": [
        {
          "internalType": "uint256",
          "name": "",
          "type": "uint256"
        }
      ],
      "stateMutability": "view",
      "type": "function"
    },
    {
      "inputs": [
        {
          "internalType": "uint256",
          "name": "tokenId",
          "type": "uint256"
        }
      ],
      "name": "tokenURI",
      "outputs": [
        {
          "internalType": "string",
          "name": "",
          "type": "string"
        }
      ],
      "stateMutability": "view",
      "type": "function"
    },
    {
      "inputs": [],
      "name": "totalSupply",
      "outputs": [
        {
          "internalType": "uint256",
          "name": "",
          "type": "uint256"
        }
      ],
      "stateMutability": "view",
      "type": "function"
    },
    {
      "inputs": [
        {
          "internalType": "address",
          "name": "from",
          "type": "address"
        },
        {
          "internalType": "address",
          "name": "to",
          "type": "address"
        },
        {
          "internalType": "uint256",
          "name": "tokenId",
          "type": "uint256"
        }
      ],
      "name": "transferFrom",
      "outputs": [],
      "stateMutability": "nonpayable",
      "type": "function"
    },
    {
      "inputs": [
        {
          "internalType": "address",
          "name": "newOwner",
          "type": "address"
        }
      ],
      "name": "transferOwnership",
      "outputs": [],
      "stateMutability": "nonpayable",
      "type": "function"
    },
    {
      "inputs": [],
      "name": "unpause",
      "outputs": [],
      "stateMutability": "nonpayable",
      "type": "function"
    }
  ],
  "bytecode": "0x60806040526001600c60006101000a81548160ff0219169083151502179055506000600c60016101000a81548160ff0219169083151502179055506801158e460913d00000600d556801a055690d9db80000600e553480156200006157600080fd5b506040518060400160405280600881526020017f4e465469636b65740000000000000000000000000000000000000000000000008152506040518060400160405280600381526020017f544b5400000000000000000000000000000000000000000000000000000000008152508160009080519060200190620000e69291906200021a565b508060019080519060200190620000ff9291906200021a565b5050506000600a60006101000a81548160ff0219169083151502179055506200013d620001316200014c60201b60201c565b6200015460201b60201c565b600d54600f819055506200032f565b600033905090565b6000600a60019054906101000a900473ffffffffffffffffffffffffffffffffffffffff16905081600a60016101000a81548173ffffffffffffffffffffffffffffffffffffffff021916908373ffffffffffffffffffffffffffffffffffffffff1602179055508173ffffffffffffffffffffffffffffffffffffffff168173ffffffffffffffffffffffffffffffffffffffff167f8be0079c531659141344cd1fd0a4f28419497f9722a3daafe3b4186f6b6457e060405160405180910390a35050565b8280546200022890620002ca565b90600052602060002090601f0160209004810192826200024c576000855562000298565b82601f106200026757805160ff191683800117855562000298565b8280016001018555821562000298579182015b82811115620002975782518255916020019190600101906200027a565b5b509050620002a79190620002ab565b5090565b5b80821115620002c6576000816000905550600101620002ac565b5090565b60006002820490506001821680620002e357607f821691505b60208210811415620002fa57620002f962000300565b5b50919050565b7f4e487b7100000000000000000000000000000000000000000000000000000000600052602260045260246000fd5b614213806200033f6000396000f3fe6080604052600436106101f95760003560e01c8063715018a61161010d578063a035b1fe116100a0578063c87b56dd1161006f578063c87b56dd146106f0578063e985e9c51461072d578063f2fde38b1461076a578063f51f96dd14610793578063f759867a146107be576101f9565b8063a035b1fe14610657578063a22cb46514610682578063b88d4fde146106ab578063c634d032146106d4576101f9565b80638ecad721116100dc5780638ecad721146105ad57806391b7f5ed146105d857806395d89b4114610601578063969745e81461062c576101f9565b8063715018a61461052b578063841718a6146105425780638456cb591461056b5780638da5cb5b14610582576101f9565b80633f4ba83a116101905780635c975abb1161015f5780635c975abb146104305780636352211e1461045b57806368428a1b146104985780636b8dc355146104c357806370a08231146104ee576101f9565b80633f4ba83a1461038857806342842e0e1461039f5780634f6ccce7146103c857806353135ca014610405576101f9565b806318160ddd116101cc57806318160ddd146102cc57806323b872dd146102f75780632f745c591461032057806332cb6b0c1461035d576101f9565b806301ffc9a7146101fe57806306fdde031461023b578063081812fc14610266578063095ea7b3146102a3575b600080fd5b34801561020a57600080fd5b5061022560048036038101906102209190612e7f565b6107da565b60405161023291906133c0565b60405180910390f35b34801561024757600080fd5b506102506107ec565b60405161025d91906133db565b60405180910390f35b34801561027257600080fd5b5061028d60048036038101906102889190612ed1565b61087e565b60405161029a9190613359565b60405180910390f35b3480156102af57600080fd5b506102ca60048036038101906102c59190612e1a565b610903565b005b3480156102d857600080fd5b506102e1610a1b565b6040516102ee919061371d565b60405180910390f35b34801561030357600080fd5b5061031e60048036038101906103199190612d14565b610a28565b005b34801561032c57600080fd5b5061034760048036038101906103429190612e1a565b610a88565b604051610354919061371d565b60405180910390f35b34801561036957600080fd5b50610372610b2d565b60405161037f919061371d565b60405180910390f35b34801561039457600080fd5b5061039d610b32565b005b3480156103ab57600080fd5b506103c660048036038101906103c19190612d14565b610bb8565b005b3480156103d457600080fd5b506103ef60048036038101906103ea9190612ed1565b610bd8565b6040516103fc919061371d565b60405180910390f35b34801561041157600080fd5b5061041a610c6f565b60405161042791906133c0565b60405180910390f35b34801561043c57600080fd5b50610445610c82565b60405161045291906133c0565b60405180910390f35b34801561046757600080fd5b50610482600480360381019061047d9190612ed1565b610c99565b60405161048f9190613359565b60405180910390f35b3480156104a457600080fd5b506104ad610d4b565b6040516104ba91906133c0565b60405180910390f35b3480156104cf57600080fd5b506104d8610d5e565b6040516104e5919061371d565b60405180910390f35b3480156104fa57600080fd5b5061051560048036038101906105109190612caf565b610d63565b604051610522919061371d565b60405180910390f35b34801561053757600080fd5b50610540610e1b565b005b34801561054e57600080fd5b5061056960048036038101906105649190612e56565b610ea3565b005b34801561057757600080fd5b50610580610f3c565b005b34801561058e57600080fd5b50610597610fc2565b6040516105a49190613359565b60405180910390f35b3480156105b957600080fd5b506105c2610fec565b6040516105cf919061371d565b60405180910390f35b3480156105e457600080fd5b506105ff60048036038101906105fa9190612ed1565b610ff1565b005b34801561060d57600080fd5b50610616611077565b60405161062391906133db565b60405180910390f35b34801561063857600080fd5b50610641611109565b60405161064e919061371d565b60405180910390f35b34801561066357600080fd5b5061066c61110f565b604051610679919061371d565b60405180910390f35b34801561068e57600080fd5b506106a960048036038101906106a49190612dde565b611115565b005b3480156106b757600080fd5b506106d260048036038101906106cd9190612d63565b61112b565b005b6106ee60048036038101906106e99190612ed1565b61118d565b005b3480156106fc57600080fd5b5061071760048036038101906107129190612ed1565b61130e565b60405161072491906133db565b60405180910390f35b34801561073957600080fd5b50610754600480360381019061074f9190612cd8565b6113b5565b60405161076191906133c0565b60405180910390f35b34801561077657600080fd5b50610791600480360381019061078c9190612caf565b611449565b005b34801561079f57600080fd5b506107a8611541565b6040516107b5919061371d565b60405180910390f35b6107d860048036038101906107d39190612ed1565b611547565b005b60006107e582611713565b9050919050565b6060600080546107fb9061399c565b80601f01602080910402602001604051908101604052809291908181526020018280546108279061399c565b80156108745780601f1061084957610100808354040283529160200191610874565b820191906000526020600020905b81548152906001019060200180831161085757829003601f168201915b5050505050905090565b60006108898261178d565b6108c8576040517f08c379a00000000000000000000000000000000000000000000000000000000081526004016108bf906135fd565b60405180910390fd5b6004600083815260200190815260200160002060009054906101000a900473ffffffffffffffffffffffffffffffffffffffff169050919050565b600061090e82610c99565b90508073ffffffffffffffffffffffffffffffffffffffff168373ffffffffffffffffffffffffffffffffffffffff16141561097f576040517f08c379a00000000000000000000000000000000000000000000000000000000081526004016109769061369d565b60405180910390fd5b8073ffffffffffffffffffffffffffffffffffffffff1661099e6117f9565b73ffffffffffffffffffffffffffffffffffffffff1614806109cd57506109cc816109c76117f9565b6113b5565b5b610a0c576040517f08c379a0000000000000000000000000000000000000000000000000000000008152600401610a039061357d565b60405180910390fd5b610a168383611801565b505050565b6000600880549050905090565b610a39610a336117f9565b826118ba565b610a78576040517f08c379a0000000000000000000000000000000000000000000000000000000008152600401610a6f906136bd565b60405180910390fd5b610a83838383611998565b505050565b6000610a9383610d63565b8210610ad4576040517f08c379a0000000000000000000000000000000000000000000000000000000008152600401610acb9061341d565b60405180910390fd5b600660008473ffffffffffffffffffffffffffffffffffffffff1673ffffffffffffffffffffffffffffffffffffffff168152602001908152602001600020600083815260200190815260200160002054905092915050565b606481565b610b3a6117f9565b73ffffffffffffffffffffffffffffffffffffffff16610b58610fc2565b73ffffffffffffffffffffffffffffffffffffffff1614610bae576040517f08c379a0000000000000000000000000000000000000000000000000000000008152600401610ba59061363d565b60405180910390fd5b610bb6611bff565b565b610bd38383836040518060200160405280600081525061112b565b505050565b6000610be2610a1b565b8210610c23576040517f08c379a0000000000000000000000000000000000000000000000000000000008152600401610c1a906136dd565b60405180910390fd5b60088281548110610c5d577f4e487b7100000000000000000000000000000000000000000000000000000000600052603260045260246000fd5b90600052602060002001549050919050565b600c60009054906101000a900460ff1681565b6000600a60009054906101000a900460ff16905090565b6000806002600084815260200190815260200160002060009054906101000a900473ffffffffffffffffffffffffffffffffffffffff169050600073ffffffffffffffffffffffffffffffffffffffff168173ffffffffffffffffffffffffffffffffffffffff161415610d42576040517f08c379a0000000000000000000000000000000000000000000000000000000008152600401610d39906135bd565b60405180910390fd5b80915050919050565b600c60019054906101000a900460ff1681565b601481565b60008073ffffffffffffffffffffffffffffffffffffffff168273ffffffffffffffffffffffffffffffffffffffff161415610dd4576040517f08c379a0000000000000000000000000000000000000000000000000000000008152600401610dcb9061359d565b60405180910390fd5b600360008373ffffffffffffffffffffffffffffffffffffffff1673ffffffffffffffffffffffffffffffffffffffff168152602001908152602001600020549050919050565b610e236117f9565b73ffffffffffffffffffffffffffffffffffffffff16610e41610fc2565b73ffffffffffffffffffffffffffffffffffffffff1614610e97576040517f08c379a0000000000000000000000000000000000000000000000000000000008152600401610e8e9061363d565b60405180910390fd5b610ea16000611ca1565b565b610eab6117f9565b73ffffffffffffffffffffffffffffffffffffffff16610ec9610fc2565b73ffffffffffffffffffffffffffffffffffffffff1614610f1f576040517f08c379a0000000000000000000000000000000000000000000000000000000008152600401610f169061363d565b60405180910390fd5b80600c60016101000a81548160ff02191690831515021790555050565b610f446117f9565b73ffffffffffffffffffffffffffffffffffffffff16610f62610fc2565b73ffffffffffffffffffffffffffffffffffffffff1614610fb8576040517f08c379a0000000000000000000000000000000000000000000000000000000008152600401610faf9061363d565b60405180910390fd5b610fc0611d67565b565b6000600a60019054906101000a900473ffffffffffffffffffffffffffffffffffffffff16905090565b600281565b610ff96117f9565b73ffffffffffffffffffffffffffffffffffffffff16611017610fc2565b73ffffffffffffffffffffffffffffffffffffffff161461106d576040517f08c379a00000000000000000000000000000000000000000000000000000000081526004016110649061363d565b60405180910390fd5b80600f8190555050565b6060600180546110869061399c565b80601f01602080910402602001604051908101604052809291908181526020018280546110b29061399c565b80156110ff5780601f106110d4576101008083540402835291602001916110ff565b820191906000526020600020905b8154815290600101906020018083116110e257829003601f168201915b5050505050905090565b600d5481565b600f5481565b6111276111206117f9565b8383611e0a565b5050565b61113c6111366117f9565b836118ba565b61117b576040517f08c379a0000000000000000000000000000000000000000000000000000000008152600401611172906136bd565b60405180910390fd5b61118784848484611f77565b50505050565b6000611197610a1b565b9050600c60019054906101000a900460ff166111e8576040517f08c379a00000000000000000000000000000000000000000000000000000000081526004016111df9061367d565b60405180910390fd5b6000821180156111f9575060028211155b611238576040517f08c379a000000000000000000000000000000000000000000000000000000000815260040161122f9061351d565b60405180910390fd5b6064828261124691906137d1565b1115611287576040517f08c379a000000000000000000000000000000000000000000000000000000000815260040161127e906134bd565b60405180910390fd5b81600f546112959190613858565b34146112d6576040517f08c379a00000000000000000000000000000000000000000000000000000000081526004016112cd906136fd565b60405180910390fd5b60005b82811015611309576112f63382846112f191906137d1565b611fd3565b8080611301906139ff565b9150506112d9565b505050565b60606113198261178d565b611358576040517f08c379a000000000000000000000000000000000000000000000000000000000815260040161134f9061365d565b60405180910390fd5b6000611362611ff1565b9050600081511161138257604051806020016040528060008152506113ad565b8061138c84612008565b60405160200161139d929190613335565b6040516020818303038152906040525b915050919050565b6000600560008473ffffffffffffffffffffffffffffffffffffffff1673ffffffffffffffffffffffffffffffffffffffff16815260200190815260200160002060008373ffffffffffffffffffffffffffffffffffffffff1673ffffffffffffffffffffffffffffffffffffffff16815260200190815260200160002060009054906101000a900460ff16905092915050565b6114516117f9565b73ffffffffffffffffffffffffffffffffffffffff1661146f610fc2565b73ffffffffffffffffffffffffffffffffffffffff16146114c5576040517f08c379a00000000000000000000000000000000000000000000000000000000081526004016114bc9061363d565b60405180910390fd5b600073ffffffffffffffffffffffffffffffffffffffff168173ffffffffffffffffffffffffffffffffffffffff161415611535576040517f08c379a000000000000000000000000000000000000000000000000000000000815260040161152c9061345d565b60405180910390fd5b61153e81611ca1565b50565b600e5481565b6000611551610a1b565b9050600c60009054906101000a900460ff166115a2576040517f08c379a00000000000000000000000000000000000000000000000000000000081526004016115999061361d565b60405180910390fd5b6000821180156115b3575060028211155b6115f2576040517f08c379a00000000000000000000000000000000000000000000000000000000081526004016115e99061351d565b60405180910390fd5b6014828261160091906137d1565b1115611641576040517f08c379a0000000000000000000000000000000000000000000000000000000008152600401611638906134bd565b60405180910390fd5b81600f5461164f9190613858565b3414611690576040517f08c379a0000000000000000000000000000000000000000000000000000000008152600401611687906136fd565b60405180910390fd5b60005b828110156116c3576116b03382846116ab91906137d1565b611fd3565b80806116bb906139ff565b915050611693565b50601482826116d291906137d1565b141561170f576000600c60006101000a81548160ff0219169083151502179055506001600c60016101000a81548160ff0219169083151502179055505b5050565b60007f780e9d63000000000000000000000000000000000000000000000000000000007bffffffffffffffffffffffffffffffffffffffffffffffffffffffff1916827bffffffffffffffffffffffffffffffffffffffffffffffffffffffff191614806117865750611785826121b5565b5b9050919050565b60008073ffffffffffffffffffffffffffffffffffffffff166002600084815260200190815260200160002060009054906101000a900473ffffffffffffffffffffffffffffffffffffffff1673ffffffffffffffffffffffffffffffffffffffff1614159050919050565b600033905090565b816004600083815260200190815260200160002060006101000a81548173ffffffffffffffffffffffffffffffffffffffff021916908373ffffffffffffffffffffffffffffffffffffffff160217905550808273ffffffffffffffffffffffffffffffffffffffff1661187483610c99565b73ffffffffffffffffffffffffffffffffffffffff167f8c5be1e5ebec7d5bd14f71427d1e84f3dd0314c0f7b2291e5b200ac8c7c3b92560405160405180910390a45050565b60006118c58261178d565b611904576040517f08c379a00000000000000000000000000000000000000000000000000000000081526004016118fb9061353d565b60405180910390fd5b600061190f83610c99565b90508073ffffffffffffffffffffffffffffffffffffffff168473ffffffffffffffffffffffffffffffffffffffff161480611951575061195081856113b5565b5b8061198f57508373ffffffffffffffffffffffffffffffffffffffff166119778461087e565b73ffffffffffffffffffffffffffffffffffffffff16145b91505092915050565b8273ffffffffffffffffffffffffffffffffffffffff166119b882610c99565b73ffffffffffffffffffffffffffffffffffffffff1614611a0e576040517f08c379a0000000000000000000000000000000000000000000000000000000008152600401611a059061347d565b60405180910390fd5b600073ffffffffffffffffffffffffffffffffffffffff168273ffffffffffffffffffffffffffffffffffffffff161415611a7e576040517f08c379a0000000000000000000000000000000000000000000000000000000008152600401611a75906134dd565b60405180910390fd5b611a89838383612297565b611a94600082611801565b6001600360008573ffffffffffffffffffffffffffffffffffffffff1673ffffffffffffffffffffffffffffffffffffffff1681526020019081526020016000206000828254611ae491906138b2565b925050819055506001600360008473ffffffffffffffffffffffffffffffffffffffff1673ffffffffffffffffffffffffffffffffffffffff1681526020019081526020016000206000828254611b3b91906137d1565b92505081905550816002600083815260200190815260200160002060006101000a81548173ffffffffffffffffffffffffffffffffffffffff021916908373ffffffffffffffffffffffffffffffffffffffff160217905550808273ffffffffffffffffffffffffffffffffffffffff168473ffffffffffffffffffffffffffffffffffffffff167fddf252ad1be2c89b69c2b068fc378daa952ba7f163c4a11628f55a4df523b3ef60405160405180910390a4611bfa8383836122ef565b505050565b611c07610c82565b611c46576040517f08c379a0000000000000000000000000000000000000000000000000000000008152600401611c3d906133fd565b60405180910390fd5b6000600a60006101000a81548160ff0219169083151502179055507f5db9ee0a495bf2e6ff9c91a7834c1ba4fdd244a5e8aa4e537bd38aeae4b073aa611c8a6117f9565b604051611c979190613359565b60405180910390a1565b6000600a60019054906101000a900473ffffffffffffffffffffffffffffffffffffffff16905081600a60016101000a81548173ffffffffffffffffffffffffffffffffffffffff021916908373ffffffffffffffffffffffffffffffffffffffff1602179055508173ffffffffffffffffffffffffffffffffffffffff168173ffffffffffffffffffffffffffffffffffffffff167f8be0079c531659141344cd1fd0a4f28419497f9722a3daafe3b4186f6b6457e060405160405180910390a35050565b611d6f610c82565b15611daf576040517f08c379a0000000000000000000000000000000000000000000000000000000008152600401611da69061355d565b60405180910390fd5b6001600a60006101000a81548160ff0219169083151502179055507f62e78cea01bee320cd4e420270b5ea74000d11b0c9f74754ebdbfc544b05a258611df36117f9565b604051611e009190613359565b60405180910390a1565b8173ffffffffffffffffffffffffffffffffffffffff168373ffffffffffffffffffffffffffffffffffffffff161415611e79576040517f08c379a0000000000000000000000000000000000000000000000000000000008152600401611e70906134fd565b60405180910390fd5b80600560008573ffffffffffffffffffffffffffffffffffffffff1673ffffffffffffffffffffffffffffffffffffffff16815260200190815260200160002060008473ffffffffffffffffffffffffffffffffffffffff1673ffffffffffffffffffffffffffffffffffffffff16815260200190815260200160002060006101000a81548160ff0219169083151502179055508173ffffffffffffffffffffffffffffffffffffffff168373ffffffffffffffffffffffffffffffffffffffff167f17307eab39ab6107e8899845ad3d59bd9653f200f220920489ca2b5937696c3183604051611f6a91906133c0565b60405180910390a3505050565b611f82848484611998565b611f8e848484846122f4565b611fcd576040517f08c379a0000000000000000000000000000000000000000000000000000000008152600401611fc49061343d565b60405180910390fd5b50505050565b611fed82826040518060200160405280600081525061248b565b5050565b606060405180602001604052806000815250905090565b60606000821415612050576040518060400160405280600181526020017f300000000000000000000000000000000000000000000000000000000000000081525090506121b0565b600082905060005b6000821461208257808061206b906139ff565b915050600a8261207b9190613827565b9150612058565b60008167ffffffffffffffff8111156120c4577f4e487b7100000000000000000000000000000000000000000000000000000000600052604160045260246000fd5b6040519080825280601f01601f1916602001820160405280156120f65781602001600182028036833780820191505090505b5090505b600085146121a95760018261210f91906138b2565b9150600a8561211e9190613a48565b603061212a91906137d1565b60f81b818381518110612166577f4e487b7100000000000000000000000000000000000000000000000000000000600052603260045260246000fd5b60200101907effffffffffffffffffffffffffffffffffffffffffffffffffffffffffffff1916908160001a905350600a856121a29190613827565b94506120fa565b8093505050505b919050565b60007f80ac58cd000000000000000000000000000000000000000000000000000000007bffffffffffffffffffffffffffffffffffffffffffffffffffffffff1916827bffffffffffffffffffffffffffffffffffffffffffffffffffffffff1916148061228057507f5b5e139f000000000000000000000000000000000000000000000000000000007bffffffffffffffffffffffffffffffffffffffffffffffffffffffff1916827bffffffffffffffffffffffffffffffffffffffffffffffffffffffff1916145b80612290575061228f826124e6565b5b9050919050565b61229f610c82565b156122df576040517f08c379a00000000000000000000000000000000000000000000000000000000081526004016122d69061355d565b60405180910390fd5b6122ea838383612550565b505050565b505050565b60006123158473ffffffffffffffffffffffffffffffffffffffff16612664565b1561247e578373ffffffffffffffffffffffffffffffffffffffff1663150b7a0261233e6117f9565b8786866040518563ffffffff1660e01b81526004016123609493929190613374565b602060405180830381600087803b15801561237a57600080fd5b505af19250505080156123ab57506040513d601f19601f820116820180604052508101906123a89190612ea8565b60015b61242e573d80600081146123db576040519150601f19603f3d011682016040523d82523d6000602084013e6123e0565b606091505b50600081511415612426576040517f08c379a000000000000000000000000000000000000000000000000000000000815260040161241d9061343d565b60405180910390fd5b805181602001fd5b63150b7a0260e01b7bffffffffffffffffffffffffffffffffffffffffffffffffffffffff1916817bffffffffffffffffffffffffffffffffffffffffffffffffffffffff191614915050612483565b600190505b949350505050565b6124958383612687565b6124a260008484846122f4565b6124e1576040517f08c379a00000000000000000000000000000000000000000000000000000000081526004016124d89061343d565b60405180910390fd5b505050565b60007f01ffc9a7000000000000000000000000000000000000000000000000000000007bffffffffffffffffffffffffffffffffffffffffffffffffffffffff1916827bffffffffffffffffffffffffffffffffffffffffffffffffffffffff1916149050919050565b61255b838383612861565b600073ffffffffffffffffffffffffffffffffffffffff168373ffffffffffffffffffffffffffffffffffffffff16141561259e5761259981612866565b6125dd565b8173ffffffffffffffffffffffffffffffffffffffff168373ffffffffffffffffffffffffffffffffffffffff16146125dc576125db83826128af565b5b5b600073ffffffffffffffffffffffffffffffffffffffff168273ffffffffffffffffffffffffffffffffffffffff1614156126205761261b81612a1c565b61265f565b8273ffffffffffffffffffffffffffffffffffffffff168273ffffffffffffffffffffffffffffffffffffffff161461265e5761265d8282612b5f565b5b5b505050565b6000808273ffffffffffffffffffffffffffffffffffffffff163b119050919050565b600073ffffffffffffffffffffffffffffffffffffffff168273ffffffffffffffffffffffffffffffffffffffff1614156126f7576040517f08c379a00000000000000000000000000000000000000000000000000000000081526004016126ee906135dd565b60405180910390fd5b6127008161178d565b15612740576040517f08c379a00000000000000000000000000000000000000000000000000000000081526004016127379061349d565b60405180910390fd5b61274c60008383612297565b6001600360008473ffffffffffffffffffffffffffffffffffffffff1673ffffffffffffffffffffffffffffffffffffffff168152602001908152602001600020600082825461279c91906137d1565b92505081905550816002600083815260200190815260200160002060006101000a81548173ffffffffffffffffffffffffffffffffffffffff021916908373ffffffffffffffffffffffffffffffffffffffff160217905550808273ffffffffffffffffffffffffffffffffffffffff16600073ffffffffffffffffffffffffffffffffffffffff167fddf252ad1be2c89b69c2b068fc378daa952ba7f163c4a11628f55a4df523b3ef60405160405180910390a461285d600083836122ef565b5050565b505050565b6008805490506009600083815260200190815260200160002081905550600881908060018154018082558091505060019003906000526020600020016000909190919091505550565b600060016128bc84610d63565b6128c691906138b2565b90506000600760008481526020019081526020016000205490508181146129ab576000600660008673ffffffffffffffffffffffffffffffffffffffff1673ffffffffffffffffffffffffffffffffffffffff168152602001908152602001600020600084815260200190815260200160002054905080600660008773ffffffffffffffffffffffffffffffffffffffff1673ffffffffffffffffffffffffffffffffffffffff168152602001908152602001600020600084815260200190815260200160002081905550816007600083815260200190815260200160002081905550505b6007600084815260200190815260200160002060009055600660008573ffffffffffffffffffffffffffffffffffffffff1673ffffffffffffffffffffffffffffffffffffffff16815260200190815260200160002060008381526020019081526020016000206000905550505050565b60006001600880549050612a3091906138b2565b9050600060096000848152602001908152602001600020549050600060088381548110612a86577f4e487b7100000000000000000000000000000000000000000000000000000000600052603260045260246000fd5b906000526020600020015490508060088381548110612ace577f4e487b7100000000000000000000000000000000000000000000000000000000600052603260045260246000fd5b906000526020600020018190555081600960008381526020019081526020016000208190555060096000858152602001908152602001600020600090556008805480612b43577f4e487b7100000000000000000000000000000000000000000000000000000000600052603160045260246000fd5b6001900381819060005260206000200160009055905550505050565b6000612b6a83610d63565b905081600660008573ffffffffffffffffffffffffffffffffffffffff1673ffffffffffffffffffffffffffffffffffffffff168152602001908152602001600020600083815260200190815260200160002081905550806007600084815260200190815260200160002081905550505050565b6000612bf1612bec8461375d565b613738565b905082815260208101848484011115612c0957600080fd5b612c1484828561395a565b509392505050565b600081359050612c2b81614181565b92915050565b600081359050612c4081614198565b92915050565b600081359050612c55816141af565b92915050565b600081519050612c6a816141af565b92915050565b600082601f830112612c8157600080fd5b8135612c91848260208601612bde565b91505092915050565b600081359050612ca9816141c6565b92915050565b600060208284031215612cc157600080fd5b6000612ccf84828501612c1c565b91505092915050565b60008060408385031215612ceb57600080fd5b6000612cf985828601612c1c565b9250506020612d0a85828601612c1c565b9150509250929050565b600080600060608486031215612d2957600080fd5b6000612d3786828701612c1c565b9350506020612d4886828701612c1c565b9250506040612d5986828701612c9a565b9150509250925092565b60008060008060808587031215612d7957600080fd5b6000612d8787828801612c1c565b9450506020612d9887828801612c1c565b9350506040612da987828801612c9a565b925050606085013567ffffffffffffffff811115612dc657600080fd5b612dd287828801612c70565b91505092959194509250565b60008060408385031215612df157600080fd5b6000612dff85828601612c1c565b9250506020612e1085828601612c31565b9150509250929050565b60008060408385031215612e2d57600080fd5b6000612e3b85828601612c1c565b9250506020612e4c85828601612c9a565b9150509250929050565b600060208284031215612e6857600080fd5b6000612e7684828501612c31565b91505092915050565b600060208284031215612e9157600080fd5b6000612e9f84828501612c46565b91505092915050565b600060208284031215612eba57600080fd5b6000612ec884828501612c5b565b91505092915050565b600060208284031215612ee357600080fd5b6000612ef184828501612c9a565b91505092915050565b612f03816138e6565b82525050565b612f12816138f8565b82525050565b6000612f238261378e565b612f2d81856137a4565b9350612f3d818560208601613969565b612f4681613b35565b840191505092915050565b6000612f5c82613799565b612f6681856137b5565b9350612f76818560208601613969565b612f7f81613b35565b840191505092915050565b6000612f9582613799565b612f9f81856137c6565b9350612faf818560208601613969565b80840191505092915050565b6000612fc86014836137b5565b9150612fd382613b46565b602082019050919050565b6000612feb602b836137b5565b9150612ff682613b6f565b604082019050919050565b600061300e6032836137b5565b915061301982613bbe565b604082019050919050565b60006130316026836137b5565b915061303c82613c0d565b604082019050919050565b60006130546025836137b5565b915061305f82613c5c565b604082019050919050565b6000613077601c836137b5565b915061308282613cab565b602082019050919050565b600061309a601f836137b5565b91506130a582613cd4565b602082019050919050565b60006130bd6024836137b5565b91506130c882613cfd565b604082019050919050565b60006130e06019836137b5565b91506130eb82613d4c565b602082019050919050565b6000613103602c836137b5565b915061310e82613d75565b604082019050919050565b6000613126602c836137b5565b915061313182613dc4565b604082019050919050565b60006131496010836137b5565b915061315482613e13565b602082019050919050565b600061316c6038836137b5565b915061317782613e3c565b604082019050919050565b600061318f602a836137b5565b915061319a82613e8b565b604082019050919050565b60006131b26029836137b5565b91506131bd82613eda565b604082019050919050565b60006131d56020836137b5565b91506131e082613f29565b602082019050919050565b60006131f8602c836137b5565b915061320382613f52565b604082019050919050565b600061321b6014836137b5565b915061322682613fa1565b602082019050919050565b600061323e6020836137b5565b915061324982613fca565b602082019050919050565b6000613261602f836137b5565b915061326c82613ff3565b604082019050919050565b60006132846011836137b5565b915061328f82614042565b602082019050919050565b60006132a76021836137b5565b91506132b28261406b565b604082019050919050565b60006132ca6031836137b5565b91506132d5826140ba565b604082019050919050565b60006132ed602c836137b5565b91506132f882614109565b604082019050919050565b60006133106018836137b5565b915061331b82614158565b602082019050919050565b61332f81613950565b82525050565b60006133418285612f8a565b915061334d8284612f8a565b91508190509392505050565b600060208201905061336e6000830184612efa565b92915050565b60006080820190506133896000830187612efa565b6133966020830186612efa565b6133a36040830185613326565b81810360608301526133b58184612f18565b905095945050505050565b60006020820190506133d56000830184612f09565b92915050565b600060208201905081810360008301526133f58184612f51565b905092915050565b6000602082019050818103600083015261341681612fbb565b9050919050565b6000602082019050818103600083015261343681612fde565b9050919050565b6000602082019050818103600083015261345681613001565b9050919050565b6000602082019050818103600083015261347681613024565b9050919050565b6000602082019050818103600083015261349681613047565b9050919050565b600060208201905081810360008301526134b68161306a565b9050919050565b600060208201905081810360008301526134d68161308d565b9050919050565b600060208201905081810360008301526134f6816130b0565b9050919050565b60006020820190508181036000830152613516816130d3565b9050919050565b60006020820190508181036000830152613536816130f6565b9050919050565b6000602082019050818103600083015261355681613119565b9050919050565b600060208201905081810360008301526135768161313c565b9050919050565b600060208201905081810360008301526135968161315f565b9050919050565b600060208201905081810360008301526135b681613182565b9050919050565b600060208201905081810360008301526135d6816131a5565b9050919050565b600060208201905081810360008301526135f6816131c8565b9050919050565b60006020820190508181036000830152613616816131eb565b9050919050565b600060208201905081810360008301526136368161320e565b9050919050565b6000602082019050818103600083015261365681613231565b9050919050565b6000602082019050818103600083015261367681613254565b9050919050565b6000602082019050818103600083015261369681613277565b9050919050565b600060208201905081810360008301526136b68161329a565b9050919050565b600060208201905081810360008301526136d6816132bd565b9050919050565b600060208201905081810360008301526136f6816132e0565b9050919050565b6000602082019050818103600083015261371681613303565b9050919050565b60006020820190506137326000830184613326565b92915050565b6000613742613753565b905061374e82826139ce565b919050565b6000604051905090565b600067ffffffffffffffff82111561377857613777613b06565b5b61378182613b35565b9050602081019050919050565b600081519050919050565b600081519050919050565b600082825260208201905092915050565b600082825260208201905092915050565b600081905092915050565b60006137dc82613950565b91506137e783613950565b9250827fffffffffffffffffffffffffffffffffffffffffffffffffffffffffffffffff0382111561381c5761381b613a79565b5b828201905092915050565b600061383282613950565b915061383d83613950565b92508261384d5761384c613aa8565b5b828204905092915050565b600061386382613950565b915061386e83613950565b9250817fffffffffffffffffffffffffffffffffffffffffffffffffffffffffffffffff04831182151516156138a7576138a6613a79565b5b828202905092915050565b60006138bd82613950565b91506138c883613950565b9250828210156138db576138da613a79565b5b828203905092915050565b60006138f182613930565b9050919050565b60008115159050919050565b60007fffffffff0000000000000000000000000000000000000000000000000000000082169050919050565b600073ffffffffffffffffffffffffffffffffffffffff82169050919050565b6000819050919050565b82818337600083830152505050565b60005b8381101561398757808201518184015260208101905061396c565b83811115613996576000848401525b50505050565b600060028204905060018216806139b457607f821691505b602082108114156139c8576139c7613ad7565b5b50919050565b6139d782613b35565b810181811067ffffffffffffffff821117156139f6576139f5613b06565b5b80604052505050565b6000613a0a82613950565b91507fffffffffffffffffffffffffffffffffffffffffffffffffffffffffffffffff821415613a3d57613a3c613a79565b5b600182019050919050565b6000613a5382613950565b9150613a5e83613950565b925082613a6e57613a6d613aa8565b5b828206905092915050565b7f4e487b7100000000000000000000000000000000000000000000000000000000600052601160045260246000fd5b7f4e487b7100000000000000000000000000000000000000000000000000000000600052601260045260246000fd5b7f4e487b7100000000000000000000000000000000000000000000000000000000600052602260045260246000fd5b7f4e487b7100000000000000000000000000000000000000000000000000000000600052604160045260246000fd5b6000601f19601f8301169050919050565b7f5061757361626c653a206e6f7420706175736564000000000000000000000000600082015250565b7f455243373231456e756d657261626c653a206f776e657220696e646578206f7560008201527f74206f6620626f756e6473000000000000000000000000000000000000000000602082015250565b7f4552433732313a207472616e7366657220746f206e6f6e20455243373231526560008201527f63656976657220696d706c656d656e7465720000000000000000000000000000602082015250565b7f4f776e61626c653a206e6577206f776e657220697320746865207a65726f206160008201527f6464726573730000000000000000000000000000000000000000000000000000602082015250565b7f4552433732313a207472616e736665722066726f6d20696e636f72726563742060008201527f6f776e6572000000000000000000000000000000000000000000000000000000602082015250565b7f4552433732313a20746f6b656e20616c7265616479206d696e74656400000000600082015250565b7f43616e2774206d696e74206d6f7265207468616e206d617820737570706c7900600082015250565b7f4552433732313a207472616e7366657220746f20746865207a65726f2061646460008201527f7265737300000000000000000000000000000000000000000000000000000000602082015250565b7f4552433732313a20617070726f766520746f2063616c6c657200000000000000600082015250565b7f43616e206f6e6c79206d696e74206265747765656e203120616e64203220746f60008201527f6b656e73206174206f6e63650000000000000000000000000000000000000000602082015250565b7f4552433732313a206f70657261746f7220717565727920666f72206e6f6e657860008201527f697374656e7420746f6b656e0000000000000000000000000000000000000000602082015250565b7f5061757361626c653a2070617573656400000000000000000000000000000000600082015250565b7f4552433732313a20617070726f76652063616c6c6572206973206e6f74206f7760008201527f6e6572206e6f7220617070726f76656420666f7220616c6c0000000000000000602082015250565b7f4552433732313a2062616c616e636520717565727920666f7220746865207a6560008201527f726f206164647265737300000000000000000000000000000000000000000000602082015250565b7f4552433732313a206f776e657220717565727920666f72206e6f6e657869737460008201527f656e7420746f6b656e0000000000000000000000000000000000000000000000602082015250565b7f4552433732313a206d696e7420746f20746865207a65726f2061646472657373600082015250565b7f4552433732313a20617070726f76656420717565727920666f72206e6f6e657860008201527f697374656e7420746f6b656e0000000000000000000000000000000000000000602082015250565b7f50726573616c652069736e277420616374697665000000000000000000000000600082015250565b7f4f776e61626c653a2063616c6c6572206973206e6f7420746865206f776e6572600082015250565b7f4552433732314d657461646174613a2055524920717565727920666f72206e6f60008201527f6e6578697374656e7420746f6b656e0000000000000000000000000000000000602082015250565b7f53616c652069736e277420616374697665000000000000000000000000000000600082015250565b7f4552433732313a20617070726f76616c20746f2063757272656e74206f776e6560008201527f7200000000000000000000000000000000000000000000000000000000000000602082015250565b7f4552433732313a207472616e736665722063616c6c6572206973206e6f74206f60008201527f776e6572206e6f7220617070726f766564000000000000000000000000000000602082015250565b7f455243373231456e756d657261626c653a20676c6f62616c20696e646578206f60008201527f7574206f6620626f756e64730000000000000000000000000000000000000000602082015250565b7f57726f6e6720616d6f756e74206f66204554482073656e740000000000000000600082015250565b61418a816138e6565b811461419557600080fd5b50565b6141a1816138f8565b81146141ac57600080fd5b50565b6141b881613904565b81146141c357600080fd5b50565b6141cf81613950565b81146141da57600080fd5b5056fea2646970667358221220c12696bd1f6e052666e7eac345b21863dc10ed9858d73e8ab61320a54ca9f63164736f6c63430008040033",
  "linkReferences": {},
  "deployedLinkReferences": {}
}